:020000040800F2
:100000002808002055020008712300086923000811
:100010006D2300084D0400080D27000800000000B3
:10002000000000000000000000000000792300082C
:100030005104000800000000752300089123000807
:100040006F0200086F0200086F0200086F020008CC
:100050006F0200086F0200086F0200086F020008BC
:100060006F0200086F0200086F0200086F020008AC
:100070006F0200086F0200086F0200086F0200089C
:100080006F0200086F0200086F0200086F0200088C
:100090006F0200086F0200086F0200086F0200087C
:1000A0006F0200086F020008A92300086F02000811
:1000B0006F0200086F0200086F0200086F0200085C
:1000C0006F0200086F0200086F0200086F0200084C
:1000D0006F020008012700086F0200086F02000885
:1000E0006F0200086F0200086F020008B5230008C5
:1000F000CD230008C12300086F0200086F0200082A
:100100006F0200086F0200086F0200086F0200080B
:100110006F0200086F0200086F0200086F020008FB
:100120006F0200086F0200086F0200086F020008EB
:100130006F0200086F0200086F0200086F020008DB
:100140006F0200086F0200086F0200086F020008CB
:100150006F0200086F0200086F0200086F020008BB
:100160006F0200086F0200086F0200086F020008AB
:100170006F0200086F0200086F0200080000000014
:100180006F0200086F02000800F002F800F052F859
:1001900014A696E8000CB244B344DA4501D100F04D
:1001A00049F8BAE80F000FA696E83000A5EB040561
:1001B00004EB0607AAEB0704A7F101074FEA1515A0
:1001C0004FEA3414A4F10104AC4201D300F032F838
:1001D00013F0010F18BFFB1A43F0010300F001F800
:1001E000DBE718477829000098290000103A24BF5F
:1001F00078C878C1FAD8520724BF30C830C144BF8C
:1002000004680C6070470000704700000023002461
:1002100000250026103A28BF78C1FBD8520728BF16
:1002200030C148BF0B6070471FB502F066FC1FBDB0
:1002300010B510BD00F0D0F81146FFF7F5FF02F041
:1002400067FA00F0EEF803B4FFF7F2FF03BC00F02A
:10025000F5F800000948804709480047FEE7FEE737
:10026000FEE7FEE7FEE7FEE7FEE7FEE7FEE7FEE766
:1002700004480549054A064B7047000095230008CD
:1002800089010008280200202808002028040020F6
:100290002804002053EA020C00F069802DE9F04B9D
:1002A0004FF00006002B1FBFB3FA83F503FA05F4E5
:1002B00024FA05F65E4012BF1643B2FA82F502FA3E
:1002C00005F4C5F120051EBF22FA05FC44EA0C0422
:1002D000203556EA044C4FEA144418BF641C4FF012
:1002E00000084FF00009904271EB030C39D300294C
:1002F00019BFB1FA81F701FA07F6B0FA80F700FAF0
:1003000007F6C7F120071EBF20FA07FC46EA0C06D5
:100310002037B6FBF4FCA7EB0507103F07F01F0BD7
:10032000CBF120062CFA06F60CFA0BFB44BFB346C1
:100330000026202FA4BF5E464FF0000B5BEA060CA0
:1003400008BF4FF0010B19EB0B0948EB0608ABFB9C
:10035000027C06FB02CC0BFB03CCC01B71EB0C0137
:10036000C1E70B46024641464846BDE8F08B13B54F
:10037000084318BF4FF0FF300146AFF30080BDE8DF
:100380001C4070474FF0000200B513469446964655
:10039000203922BFA0E80C50A0E80C50B1F1200198
:1003A000BFF4F7AF090728BFA0E80C5048BF0CC046
:1003B0005DF804EB890028BF40F8042B08BF7047A4
:1003C00048BF20F8022B11F0804F18BF00F8012B16
:1003D0007047704770477047754600F02BF8AE467F
:1003E00005006946534620F00700854618B020B541
:1003F000FFF73EFFBDE820404FF000064FF000073A
:100400004FF000084FF0000BAC46ACE8C009ACE878
:10041000C009ACE8C009ACE8C00921F007018D466D
:10042000704710B50446AFF300802046BDE8104089
:10043000FFF709BF0048704710000020014918204D
:10044000ABBEFEE72600020070470000FEE700009A
:100450007047000070B581B00022009290F83C20F7
:10046000012A03D1022001B070BD00BFD1F800E025
:1004700001221FFA8EFC4FEA4C0380F83C200EEB61
:100480004E0213FA8EF31024BEF1090F88BFA3F1B8
:100490001E0288BF0C24036807251E59954026EAD2
:1004A00005051D518D681E5905FA02F232431A5195
:1004B0004968062906D801EB81014A1F194651F8FF
:1004C000345F0EE00C2901EB810105D8A1F1230274
:1004D000194651F8305F04E0A1F14102194651F884
:1004E0002C5F1F24944025EA04040C600CFA02F2ED
:1004F0000C6842F2043CC4F2010C2243ACF5417496
:10050000A3420A603ED1BEF1120F07D1DCF8001001
:1005100041F48001CCF8001034E000BF2EF001015E
:1005200010292FD1DCF80010BEF1100F41F40001AA
:10053000CCF8001026D140F20801C2F2000109688F
:100540004DF68362C4F21B32A1FB0212910C01EB47
:100550008101490000910099A1B1009901390091F0
:10056000009979B1009901390091009951B1009930
:1005700001390091009929B1009901390091009940
:100580000029EAD1002180F83C10002001B070BDA4
:100590000068C06C70470000002804BF012070474D
:1005A00010B5016C00293DD0016CC90645D4016C21
:1005B00041F202129143023142F204320164C4F268
:1005C0000102116821F440311160136890E81210A3
:1005D0002343D0F810E013604A68012422F48072AB
:1005E0004A604A68C0F6007442EA0E224A604A68CD
:1005F00022F040724A604A6842EA0C024A608A6805
:1006000022F400628A60C2688B681A438A60826A38
:100610008B68A24223F070638B608B6810D123F04B
:10062000405216E0044600F065F82046002161645F
:1006300084F83C10016CC906B9D5012153E000BF14
:100640001A438A608A6822F040528A60C26A8B68C4
:100650001A438A608A6822F002028A608A68037EEE
:1006600090F8204042EA43028A604A6884B142F42A
:1006700000624A604A684EF2000322F460424A6017
:10068000426ACFF6FF734C6803EB4232224301E02B
:1006900022F400624A60CA6A40F2000C22F470023E
:1006A000CA62C3694269CFF6F07CCC6A0CEB035393
:1006B0002343CB628B6823F400738B6090F8303057
:1006C0008C6844EA43238B608B6823F480638B60DF
:1006D0008B6843EA82228A6000214164026C012314
:1006E00063F301020264002280F83C20BDE8104060
:1006F0000846704780B586B042F200010068C4F237
:100700000101002288420592CDE903220292019262
:1007100002D006B080BD00BF43F630000092C4F2A4
:100720000200436943F480734361436903F48073B7
:100730000093009B0092036843F00103036000688C
:1007400000F0010000900098022001900320CDE904
:10075000020201F5604001A900F0B8F906B080BDC1
:1007600070B5044600680D468268520544BF806833
:100770005FEAC05038D400F079FA21680A6892071D
:1007800049D40646681C3CD0DDB90868800721D5ED
:10079000086880073FD4086880071BD50868800771
:1007A00039D40868800715D50868800733D40868ED
:1007B00080070FD508688007E7D52CE00868800718
:1007C00029D400F053FA801B2168A842F6D90868A2
:1007D0008007F3D4206C40F004002064002084F8EB
:1007E0003C00032070BD00BF206C40F0200020645E
:1007F000002084F83C00012070BD00BF086880071D
:1008000009D40868800706D4086880075CBF0868B8
:100810005FEA8070F2D56FF012000860206C40F43F
:1008200000702064886810F0405F01D0002070BD27
:10083000207E0028FAD1C86A10F4700F02D08868B0
:100840004005F3D4206C20F480702064206CC00438
:10085000ECD4206C40F001002064002070BD00004A
:1008600010B581B00021009190F83C10012903D10E
:10087000022001B010BD00BF0468012180F83C10C7
:10088000214651F8083FDB0729D10B684DF68362FA
:1008900043F001030B6040F20803C2F200031B683F
:1008A000C4F21B32A3FB02239A0C02EB4202009219
:1008B000009AA2B1009A013A0092009A7AB1009A85
:1008C000013A0092009A52B1009A013A0092009ABD
:1008D0002AB1009A013A0092009A002AEAD10A68E5
:1008E000036CD2070CD143F01001016400F1440104
:1008F00001200A6810430860002001B010BD00BF4D
:1009000040F2017223EA020202F580720264626818
:10091000520504D5026C012363F30D320264026CAC
:100920004FF0000E0023D20444BF426C22F00603B5
:1009300042F2043C436480F83CE06FF02200C4F2D1
:10094000010C2060DCF80000C0060DD0ACF5417051
:1009500084422BD14FF60450CFF6FF705CF80000B4
:1009600010F0405F22D125E042F20000C4F2010005
:10097000844217D042F20020C4F2010084420DD01C
:1009800042F20010C4F2010084420FD1DCF80000F2
:10099000C00607D0ACF58270844207D1DCF80000B5
:1009A000C00603D4086810F0405F03D0002001B0F7
:1009B00010BD00BF4FF080409BE7000090F83C1056
:1009C000012904BF0220704701688A6822F00102F1
:1009D0008A608968C90705D1016C41F2011291430F
:1009E00001310164002180F83C10002070470000B4
:1009F00070B5866D044600F039F994F83510022977
:100A000028D105462068216C026822F01602026097
:100A1000426922F08002426109B9A16C19B10168F2
:100A200021F008010160016821F00101016000BFAF
:100A300020680068C00715D000F018F9401B062890
:100A4000F6D320206065032084F83500002184F867
:100A5000341070BD802060650120002184F83410BE
:100A600070BD00BFE06D3F2101FA00F0B0600120D1
:100A700084F835000020002184F8341070BD000097
:100A800090F83510022909D1052180F83510006849
:100A9000016821F00101016000207047802141655B
:100AA00001207047B0B5044600F0E0F8054640F27A
:100AB0000000C2F200000078611C18BF044400BFAF
:100AC00000F0D4F8401BA042FAD3B0BD2DE9F04F9E
:100AD00083B000F1200200F13E4741F6004500924C
:100AE00007F1FF77C4F2020508224FEAB726A842B1
:100AF00008BF072200254FF000084FF00009072E1D
:100B000038BF4FEAB72201920AE000BF09F101099C
:100B100008F10208B9F1100F05F1040500F0A280F8
:100B20000F68012202FA09FE17EA0E0AEED0D1F888
:100B300004C003220CF003077E1E02FA08F4012E03
:100B40006FEA040B12D88468CE6804EA0B0406FA34
:100B500008F634438460446824EA0E06CCF300149B
:100B600004FA09F42643466004E000BF032F01D1D4
:100B700003271EE0C6688C6806EA0B0604FA08F430
:100B80002643022FC66014D16FF00302009E02EAD2
:100B9000590756F807C005F01C040F220B69A24044
:100BA0002CEA0202A3401A43F251D1F804C00CF01F
:100BB0000307026807FA08F302EA0B021A431CF45F
:100BC000403F0260A2D0002243F644030292C4F2E6
:100BD00002031A6843F6004442F480421A601A681D
:100BE000C4F2010402F480420292029A29F0030244
:100BF0004FF6084C2244CFF6FF7C52F80C3005F03B
:100C00000C070F26BE40B343019E06FA07F73B438D
:100C100042F80C30A2684B6842EA0A0743F60C4CD3
:100C2000DE0258BF22EA0A07A760C4F2010CDCF812
:100C300000209E0242EA0A0758BF22EA0A07CCF8BF
:100C4000007062689E0342EA0A0758BF22EA0A0758
:100C500067602268DB0342EA0A0758BF22EA0A07F4
:100C6000276053E703B0BDE8F08F000040F220207A
:100C7000C2F200000068704740F2000040F22021FC
:100C8000C2F20000C2F2000100780A681044086055
:100C90007047000080B543F60040C4F202000168CE
:100CA00041F400710160016841F4806101600168F4
:100CB00041F480710160032000F086F80F2000F0FD
:100CC00005F800F027F8002080BD000070B540F264
:100CD0000006C2F2000640F208013278C2F20001BA
:100CE0004FF47A730968B3FBF2F20446B1FBF2F1F8
:100CF000084600F061FB0F2C4FF0010508D838B909
:100D00004FF0FF3021460022002500F031F87460DA
:100D1000284670BD82B0002043F640010190C4F225
:100D200002014A6842F480424A604A6802F4804202
:100D30000192019A0090086840F0805008600868AD
:100D400000F080500090009802B07047002848BF23
:100D5000704700F01F01012202FA01F11C2202EA91
:100D6000D0004EF20012CEF2000281507047000017
:100D700010B54EF60C5CCEF2000CDCF80030C3F37C
:100D8000022E8EF00704042C28BF0424BEF10303B6
:100D90004FF0FF3E0EFA04F438BF0023A143994000
:100DA0000EFA03F39A43114300F00F0200F160437F
:100DB0000901043A03F564436244002848BF02F184
:100DC0000C03197010BD00004EF60C51CEF200015C
:100DD0000A684FF6FF031A4060F30A2242F080606F
:100DE00040F0FD7008607047002804BF0120704784
:100DF0002DE9F04143F60808C4F202080446D8F889
:100E0000F8030D4600F00700814207D988F8F8532F
:100E1000D8F8F80300F00700A84277D120688107CE
:100E200017D5410705D5D8F8001041F4E051C8F8AE
:100E30000010010705D5D8F8001041F46041C8F84A
:100E40000010D8F80010A26821F0F0011143C8F892
:100E50000010C00740D1D8F8F80300F00700854221
:100E600007D288F8F853D8F8F80300F00700A84232
:100E70004CD12068410707D5D8F80010E26821F46A
:100E8000E0511143C8F80010000708D5D8F8000059
:100E9000216920F4604040EAC100C8F8000000F079
:100EA0007DF8D8F8001042F61432C1F30311C0F6F1
:100EB0000002515C40F2080220FA01F140F2040005
:100EC000C2F200000068C2F200021160FFF7FEFEED
:100ED0000020BDE8F08100BF6068811E022907D2B2
:100EE00058F8081C89015CBF0120BDE8F08111E0C1
:100EF000012807D158F8081C89035CBF0120BDE810
:100F0000F08107E058F8081C890703D40120BDE8E8
:100F1000F08100BFD8F8001021F003010843C8F8A1
:100F20000000FFF7A3FE064641F28837D8F800001C
:100F3000616800F00C00B0EB810F8CD0FFF796FEDB
:100F4000801BB842F2D90320BDE8F08140F20800CE
:100F500043F60801C2F20000C4F202010068096809
:100F600042F62432C1F38221C0F60002515CC8402F
:100F70007047000040F2080043F60801C2F200008A
:100F8000C4F202010068096842F62432C1F342311A
:100F9000C0F60002515CC8407047000010B543F62F
:100FA0000404C4F202046168C1F3810142F200400A
:100FB000C0F2F400DFE801F002040A0210BD00BF35
:100FC00047F64000C0F27D1010BD00BF20682168C8
:100FD0002368490247F64001C0F27D1100F03F024C
:100FE000C3F388105CBF42F20041C0F2F401A1FBE0
:100FF00000010023FFF74EF921680222C1F30141ED
:1010000002EB4101B0FBF1F010BD0000002804BF6D
:10101000012070472DE9F04182B00446007843F684
:101020000006C007C4F202060CD0B06800F00C0045
:10103000042840F081803068800303D56068002870
:1010400000F06881207880071BD5B06810F00C0F85
:1010500009D0B06800F00C00082840F08780706864
:10106000400200F183803068800703D5E0680128E2
:1010700040F050813068216920F0F80040EAC1005A
:1010800030602078000713D4207840072AD4A5695F
:10109000002D00F03A81B06800F00C00082840F004
:1010A000A580012D40F00E81012002B0BDE8F08145
:1010B0006069002800F082800020C4F247200121EE
:1010C000C0F8801EFFF7D2FD054600BF706F800795
:1010D000DAD4FFF7CBFD401B0228F7D9032002B07A
:1010E000BDE8F081306C5FEAC0080AD400200190AE
:1010F000306C40F080503064306C00F080500190D3
:10110000019847F20007C4F200073868C00547D4C9
:10111000386840F480703860FFF7A8FD054600BFCE
:101120003868C0053CD4FFF7A1FD401B0228F7D961
:10113000032002B0BDE8F081B06800F00C00082880
:1011400003D1706840023FF576AF61683068B1F551
:10115000803F07D0B1F5A02F40F09A8040F4802066
:101160003060306840F4803030609AE0E0680028F9
:1011700040F20000C4F247205CD001210160FFF77B
:1011800075FD0546306880073FF574AFFFF76EFDCB
:10119000401B0228F6D9032002B0BDE8F08100BF51
:1011A000A168306F012905D0052955D140F0040010
:1011B0003067306F40F00100306756E00020C4F225
:1011C00047200021C0F8801EFFF750FD054600BFF4
:1011D000706F80077FF558AFFFF748FD401B02286E
:1011E000F6D9032002B0BDE8F08100BF0027C4F2A9
:1011F000472700203866FFF739FD022D05460DD13F
:101200003068800140F18A80FFF730FD401B0228E2
:101210004FF00300F4D902B0BDE8F08130688001DE
:1012200073D5FFF723FD401B02284FF00300F5D9CB
:10123000F1E700BF00210160FFF718FD054600BF80
:10124000306880077FF51DAFFFF710FD401B0228B7
:101250004FF00300F4D9DEE720F001003067306F73
:10126000002920F0040030677AD0FFF7FFFC054624
:1012700041F28837306F800700F18480FFF7F6FC79
:10128000401BB842F6D9032002B0BDE8F08100BF90
:1012900020F4803030603068002920F480203060F5
:1012A0007AD0FFF7E3FC0546306880033FF5CAAE0D
:1012B000FFF7DCFC401B6428F6D9032002B0BDE830
:1012C000F08100BF7068E16900F480028A4221D198
:1012D000216A00F03F028A421CD147F6C071626A5F
:1012E0000140B1EB821F15D1A16A4FF6FF73C9030C
:1012F000994300F44032A1F580318A420AD1E16A73
:1013000000F07060B0EB016F04D1002002B0BDE8C6
:10131000F08100BF012002B0BDE8F08104F11C059E
:101320002FCD084340EA8210D9034FF6FF72914354
:10133000A1F5803140EA05600843706001203866FD
:10134000FFF794FC044600BF30688001DDD4FFF74E
:101350008DFC001B02284FF00300F5D95BE700BFAE
:10136000FFF784FC054641F2883700BF306F8007E5
:1013700008D5FFF77BFC401BB8424FF00300F5D9BE
:1013800049E700BFB8F1000F3FF581AE306C20F0A7
:10139000805030647BE600BFFFF768FC054600BF65
:1013A000306880037FF54EAEFFF760FC401B642879
:1013B0004FF00300F4D92EE7411E0020B0EB116F6F
:1013C0001CBF012070474EF21002CEF200025160A5
:1013D0004EF62351CEF20001F0230B7007219060EE
:1013E000116070477047000070470000002804BF7C
:1013F0000120704710B5044690F83D0028B9002040
:1014000084F83C00204600F01FF8022084F83D00DC
:101410002068211D00F0E0FF012084F8460084F8D8
:101420003E0084F83F0084F8400084F8410084F8CE
:10143000420084F8430084F8440084F8450084F8AE
:101440003D00002010BD000010B582B0006841F6DC
:10145000FF71C4F2000188421ADC41F60001C4F2B7
:101460000001884232D041F60041C4F200018842B6
:101470002AD10020019043F64000C4F20200016826
:101480002C2441F080010160006800F080003BE006
:1014900042F20001C4F20001884227D044F6000164
:1014A000C4F2010188420FD10020019043F64000B0
:1014B000C4F2020041681A2441F48021416040686E
:1014C00000F4802020E000BF02B010BD0020019099
:1014D00043F64000C4F2020001682B2441F04001B1
:1014E0000160006800F040000EE000BF00200190A5
:1014F00043F64000C4F2020001682D2441F48071DB
:101500000160006800F4807001900198204600217D
:101510000022FFF72DFC204602B0BDE81040FFF787
:1015200015BC000090F83C20012A4FF002026CD05C
:1015300080B580F83D20D0F800C04FF67772DCF817
:10154000083023EA0202CCF808200B684F2B29DC74
:101550001F2B45DD202B46D0302B44D0402B40F0B4
:10156000AF80D1F804E0C968DCF82030DCF8202036
:1015700022F00102CCF82020DCF8182022F0F00242
:1015800042EA011123F00A0242EA0E02CCF81810D6
:10159000CCF82020DCF8081041F0470121F03001A0
:1015A00028E000BF6F2B33DDB3F5005F74D0B3F5D7
:1015B000805F21D0702B40F08380D1E901E3C968BE
:1015C000DCF8082043EA0E0322F47F4243EA0121BB
:1015D0001143CCF80810DCF8081041F0770109E05D
:1015E0000BB1102B6CD1DCF8081021F070011943FD
:1015F00041F00701CCF808100022012180F83D10CD
:10160000002180F83C10BDE880401046704700BFC4
:10161000502B21D0602B53D1D1F804E0C968DCF8FD
:10162000203023F01003CCF82030DCF81830DCF840
:10163000202023F4704322F0A00243EA013142EA61
:101640000E12CCF81810CCF82020DCF8081041F06D
:10165000670121F01001CDE7D1F804E0C968DCF89A
:101660002030DCF8202022F00102CCF82020DCF829
:10167000182022F0F00242EA011123F00A0242EAA5
:101680000E02CCF81810CCF82020DCF8081041F03D
:10169000570121F02001ADE7D1E901E3C968DCF889
:1016A000082043EA0E0322F47F4243EA012111435A
:1016B000CCF80810DCF8081041F480419AE700BF2C
:1016C00001229AE77047000010B5016804460869D6
:1016D000800744BFC8685FEA807039D40869400752
:1016E00044BFC8685FEA40703ED40869000744BF41
:1016F000C8685FEA007045D40869C00644BFC8687E
:101700005FEAC0604AD40869C0071CBFC8685FEAC6
:10171000C07051D10869000644BFC8685FEA006024
:1017200052D40869400644BFC8685FEA406053D499
:101730000869800646BFC8685FEA806010BD6FF028
:10174000200220460A61BDE81040FFF74DBE00BFF1
:101750006FF002000861012020778869800743D07C
:101760002046FFF7AFFF45E06FF00400086102205C
:101770002077886910F4407F40D02046FFF7A2FF11
:1017800042E000BF6FF00800086104202077C869BC
:1017900080073DD02046FFF795FF3FE06FF0100037
:1017A000086108202077C86910F4407F3AD02046AD
:1017B000FFF788FF3CE000BF6FF0010008612046A2
:1017C00000F09EFA2168A5E76FF0800008612046CE
:1017D000FFF708FE2168A4E76FF04000086120468B
:1017E00000F090FA2168A3E7204600F09FF8204619
:1017F00000F0DEF92168002020776FE7204600F036
:1018000095F8204600F0D4F92168002020776CE795
:10181000204600F08BF8204600F0CAF9216800202D
:10182000207769E7204600F081F8204600F0C0F9F3
:1018300021680020207766E780B586B0006841F611
:10184000FF71C4F2000188424FF000010591CDE91B
:101850000311CDE9011115DC41F60001C4F20001CC
:1018600088422BD041F60041C4F2000188425BD18E
:101870000020009043F63000C4F2020001684022CC
:101880003CE000BF42F20001C4F2000188422DD0CA
:1018900044F60001C4F20101884245D100200090C5
:1018A00043F63000C4F2020001684FF4007241F0C8
:1018B00002010160006803210EE000BF00200090DB
:1018C00043F63000C4F2020001684FF4804241F058
:1018D000020101600068092100F0020000900098F8
:1018E0000020C4F2020000F5806013E000200090A8
:1018F00043F63000C4F202000168802241F0010189
:1019000001600068092100F00100009000980020AB
:10191000C4F2020001920222CDE902220322CDE9A3
:10192000042101A9FFF7D2F806B080BD704700007E
:1019300090F83C30012B04BF022070474FEAB202FE
:10194000032A00F2FF802DE9F043DFE802F003B143
:101950003F7F00BF036840F200461A6A43F4806587
:1019600022F001021A621C6A1A46D3F804C052F827
:1019700018EF8F6824F00204C4F20106B54244EA6D
:10198000070405D1CF6824F00C0427F004073C437A
:101990000F68B54206D1D1E905582CF440762E43A4
:1019A00046EA080C2EF073063743C3F804C09F6163
:1019B0004F6809695F631C629F6947F008079F6170
:1019C0009F6927F004079F61B1E000BF036840F200
:1019D00000481A6A43F4806522F480721A621C6A15
:1019E0001A46D3F804C052F81CEF8F6824F4007430
:1019F000C4F20108454544EA072408D1CF6840F203
:101A0000FF463F0224F4406427EA06063443D1F837
:101A10000090454506D1D1E905562CF440572E4398
:101A200047EA061C2EF0730747EA0907C3F804C00B
:101A3000DF614F680969DF631C62DF6947F00807EF
:101A4000DF61DF6927F00407DF6170E0036840F2BF
:101A500000451A6A43F4806722F480521A621A46DB
:101A6000D3F820C05C6852F81C8FD1F800E08E6873
:101A7000C4F20105AF4204D14D6924F4804444EA24
:101A800085142CF4005747EA063728F4E64646EA60
:101A90000E265C60DE614E6809691E641F62DF69A4
:101AA00047F40067DF61DF6927F48067DF613DE0AD
:101AB000036840F200481A6A43F4806522F010027D
:101AC0001A621C6A1A46D3F804C052F818EF8F68DD
:101AD00024F02004C4F20108454544EA071407D164
:101AE000CF686FF0400624F0C00406EA07163443BE
:101AF000D1F80090454506D1D1E905562CF4406750
:101B00002E4347EA860C2EF4E64747EA0927C3F836
:101B100004C09F614F6809699F631C629F6947F415
:101B200000679F619F6927F480679F6109021368BE
:101B3000194311600021BDE8F043002280F83C20E9
:101B4000084670470121002280F83C200846704773
:101B5000002804BF0120704710B5044690F83D00EE
:101B600028B9002084F83C00204600F01FF802202D
:101B700084F83D002068211D00F02EFC012084F82F
:101B8000460084F83E0084F83F0084F8400084F862
:101B9000410084F8420084F8430084F8440084F84B
:101BA000450084F83D00002010BD00007047000093
:101BB00070470000F1B1042908D0082914BF412260
:101BC0004022825C012A05D024E000BF3F22825CD3
:101BD000012A1FD10222082920D0042914BF80F82D
:101BE000412080F83F204FEAB103032B4FF0010260
:101BF0000DD81BE090F83E20012A0BD1022280F87C
:101C00003E204FEAB103032B4FF001020ED91046DC
:101C1000704700BF01221046704700BF80F8402087
:101C20004FEAB103032B4FF00102F0D842F62C3CEF
:101C30000068C0F6000C5CF823C0C36801F01F0107
:101C400043EA0C03C360036A02FA01F123EA0102CA
:101C50000262026A114341F2FF72C4F20002904232
:101C600001620BDC40F2FF71C4F20001884213DC18
:101C7000B0F1804F36D040F2004115E040F2FF3124
:101C8000C4F20101884215DC41F60001C4F20001F2
:101C9000884227D0002115E040F60001C4F200017F
:101CA00088421FD040F60041C4F20001884219D09A
:101CB0001FE000BF44F20001C4F20101884211D0CC
:101CC00040F20041C4F20101884212D1416C40F25D
:101CD000004340F48062C4F2010341F400419A429F
:101CE000416406D1816801F00701062904BF002084
:101CF0007047016841F00101016000207047000059
:101D000070470000704700007047000070470000F7
:101D1000B0B582B001680A68CC684B6902F02F0543
:101D2000202D04F0200505D125B102B0BDE8B0405A
:101D300000F0F2BB5FEA027C1EBF03F0010E04F468
:101D4000907313EB0E0341D1036BD50618D5012B0D
:101D500016D114F0100313D0002201920A680192E8
:101D60004A680192019A496949064BD4818DC28D16
:101D7000C38D002B18BF914240F0F28102B0B0BD7C
:101D800013062DD514F080032AD090F83D20212A87
:101D9000F4D18268B2F5805F03D10269002A00F0B5
:101DA0006382026A531C036212784A60C28C013A51
:101DB0001304C284E2D1C86820F08000C860C868FB
:101DC00040F04000C86002B0B0BD00BFD30718BFEC
:101DD00014F4807340F0CE80530700F1D180D6E038
:101DE0005206CBD514F04002C8D0CA6822F0400297
:101DF000CA60202180F83D1002B0BDE8B04000F07C
:101E0000B1BA00BF826B11684B689DB2002DB5D08E
:101E1000818D8D42B2D2C385D269B2F5807F00F048
:101E2000A180016851E8031F026821F4807142E833
:101E30000313DBB1016851E8031F026821F48071CC
:101E400042E8031393B1016851E8031F026821F4CB
:101E5000807142E803134BB1016851E8031F026827
:101E600021F4807142E80313002BDAD1016851E8B4
:101E7000051F026821F0010142E80513BBB30168A8
:101E800051E8051F026821F0010142E8051373B310
:101E9000016851E8051F026821F0010142E80513BD
:101EA0002BB3016851E8051F026821F0010142E8E7
:101EB0000513002BDAD11AE0016851E8051F02680A
:101EC00021F0400142E80513DBB1016851E8051F2C
:101ED000026821F0400142E8051393B1016851E81E
:101EE000051F026821F0400142E805134BB101686B
:101EF00051E8051F026821F0400142E80513002B5C
:101F0000DAD1202180F83E1000210163016851E8F8
:101F1000031F026821F0100142E80313DBB10168DE
:101F200051E8031F026821F0100142E8031393B146
:101F3000016851E8031F026821F0100142E8031311
:101F40004BB1016851E8031F026821F0100142E81B
:101F50000313002BDAD1816B04460846FEF748FDD7
:101F6000A18D2046C28D891A89B202B0BDE8B04069
:101F7000FFF7CABE036C43F001030364530706D5A1
:101F8000BEF1000F03D0036C43F002030364930718
:101F900006D5BEF1000F03D0036C43F004030364C5
:101FA000BCF1000F06D55EEA050303D0036C43F0D5
:101FB00008030364036C002B3FF4E0AE920605D5E2
:101FC00025B1044600F0A8FA216820464969026C50
:101FD00001F0400102F00802891800F0B98000BF4A
:101FE000016851E8031F026821F4907142E803136D
:101FF000BBB3016851E8031F026821F4907142E805
:10200000031373B3016851E8031F026821F4907150
:1020100042E803132BB3016851E8031F026821F45F
:10202000907142E80313002BDAD11AE0016851E8FD
:10203000051F026821F0010142E80513DBB10168C8
:1020400051E8051F026821F0010142E8051393B130
:10205000016851E8051F026821F0010142E80513FB
:102060004BB1016851E8051F026821F0010142E807
:102070000513002BDAD1016B012924D1016851E845
:10208000031F026821F0100142E80313DBB101686D
:1020900051E8031F026821F0100142E8031393B1D5
:1020A000016851E8031F026821F0100142E80313A0
:1020B0004BB1016851E8031F026821F0100142E8AA
:1020C0000313002BDAD1202180F83E100021016398
:1020D00001684969490640F1C180016851E8051F5E
:1020E000026821F0400142E80513DBB1016851E8C4
:1020F000051F026821F0400142E8051393B1016811
:1021000051E8051F026821F0400142E805134BB178
:10211000016851E8051F026821F0400142E80513FB
:10212000002BDAD1816B002900F0988042F20D5229
:10213000C0F60002044608460A65FEF7A1FC002826
:102140003FF41CAEA06B016D02B0BDE8B040084783
:102150000446FFF7DBFD0020206402B0B0BD00BFE5
:10216000891A00BF026852E8032F036822F49072B4
:1021700043E80325BDB3026852E8032F036822F445
:10218000907243E8032575B3026852E8032F036891
:1021900022F4907243E803252DB3026852E8032F1E
:1021A000036822F4907243E80325002DDAD11AE087
:1021B000026852E8052F036822F0010243E8052572
:1021C000DDB1026852E8052F036822F0010243E8FE
:1021D000052595B1026852E8052F036822F0010237
:1021E00043E805254DB1026852E8052F036822F047
:1021F000010243E80525002DDAD1202280F83E2097
:1022000000220263026852E8032F036822F01002E2
:1022100043E80325DDB1026852E8032F036822F08A
:10222000100243E8032595B1026852E8032F0368C2
:1022300022F0100243E803254DB1026852E8032F53
:10224000036822F0100243E80325002DDAD189B299
:1022500002B0BDE8B040FFF757BD00BF02B0BDE817
:10226000B040FFF753BD00BF026A32F8023B6FF384
:102270005F234B60026299E5002804BF012070478C
:1022800010B5044690F83D0028B9002084F83C00C1
:10229000204600F021F8242084F83D002068C16821
:1022A00021F40051C160204600F0B6F920680169B0
:1022B00021F490410161416921F02A014161C16825
:1022C00041F40051C16000202021206484F83D10B9
:1022D00084F83E1010BD000080B586B041F20001C8
:1022E0000068C4F20101002288420592CDE9032270
:1022F0000292019202D006B080BD00BF43F63000CA
:102300000092C4F20200436943F010034361436941
:1023100003F010030093009B0092036843F0010355
:102320000360006800F00100009000984FF4C06066
:1023300001900220CDE902020320049007200590BD
:1023400001F5704001A9FEF7C1FB25200021002204
:10235000FEF70EFD2520FEF7F9FC06B080BD00005B
:102360007047000070470000FEE70000FEE7000035
:10237000FEE7000070470000704700000268D1626D
:10238000C1604808506370470021FFF713BC00008C
:10239000FEF772BC4EF68850CEF20000016841F4A0
:1023A000700101607047000040F20010C2F20000AE
:1023B000FFF78AB940F24810C2F20000FFF784B973
:1023C00040F2D810C2F20000FFF77EB940F2901040
:1023D000C2F20000FFF778B910B540F6FF3E03687F
:1023E000C4F2000E40F2004C7045C4F2010C25DC32
:1023F000B0F1804F2FD040F20042C4F20002904270
:1024000029D040F60002C4F20002904223D041F6E7
:10241000FF72C4F20002904227DC70453ADCB0F152
:10242000804F5BD040F20042C4F20002904255D08F
:1024300040F60002C4F200024EE000BF40F6004247
:10244000C4F20002904206D0604504D00022C4F2DB
:1024500001029042DBD14A6823F07003134341F636
:10246000FF72C4F200029042D7DD43F6FF72C4F25D
:102470000102904220DC42F20002C4F200029042CB
:102480002CD00022C4F20102904227D0604525D012
:1024900028E000BF40F60042C4F2000290421DD086
:1024A00041F60002C4F20002904217D041F6004209
:1024B000C4F2000210E000BF44F20002C4F20102C4
:1024C00090420BD044F60002C4F20102904205D0C3
:1024D00044F20042C4F20102904203D1CA6823F4DC
:1024E0004073134323F080024B69D1F800E08C68FD
:1024F0001A430260C46240F48062C0F828E062457A
:1025000004BF096901630121416110BD806B002195
:10251000C185C184FFF7FABB81B090F83E10222933
:1025200021D183680246B3F5805F09D152F8281F94
:1025300052F8183C002B63D003685B680AE000BFC8
:1025400052F8281F13B90369002BF5D003685B68A4
:1025500003F07F030B70116801311160C18D0139E7
:102560000A04C18502D001B0704700BF0168CA6883
:1025700022F02002CA60CA6822F48072CA604A69E6
:1025800022F001024A61202180F83E10016B0129EE
:102590003ED10021016300BF016851E8031F0268BA
:1025A00021F0100142E80313DBB1016851E8031F79
:1025B000026821F0100142E8031393B1016851E869
:1025C000031F026821F0100142E803134BB10168B8
:1025D00051E8031F026821F0100142E80313002BA9
:1025E000DAD101680A68D20606D5002200920A688C
:1025F0000092496800910099818D01B0FFF784BB7A
:10260000026852686FF35F2221F8022B8162A5E70E
:1026100001B0FFF7A5BE0000B0B50446006804F1A4
:1026200008030ECB0569194325F440552A4302617E
:102630006269E3691143C268194349F20C639A4322
:102640001143C1604169A26921F4407141F2004324
:10265000114340F48062C4F201039A42416103D104
:10266000FEF788FC02E000BFFEF770FCE1694FF660
:102670009C7563681922C0F6FF75B1F5004FA0FB89
:1026800002011FD15A00DB0FFDF704FE48F21F5173
:10269000C5F2EB11A0FB01235A0905F1805302FB9F
:1026A0000300322303EBC000A0FB01014FF4F870DC
:1026B00000EA111000EB0210C1F342110844216836
:1026C0008860B0BD9A009B0FFDF7E4FD48F21F51F2
:1026D000C5F2EB11A0FB01235A0902FB05003223CE
:1026E00003EB0010A0FB0101F02000EA511000EB09
:1026F0000210C1F34311084421688860B0BD000096
:1027000040F27400C2F20000FFF702BBFEE70000D7
:1027100092B043F6300647F20005C4F20206C4F256
:102720000005FEF7B7FA06AC20463021FDF72AFE79
:1027300000270597CDE90377CDE901770097306948
:1027400040F080503061306900F080500090009877
:102750000097286840F480402860286800F4804092
:1027600000900098022006900120099010200A9005
:1027700020460C97FEF74AFC20B1EFF3108072B6AA
:10278000FEE700BF0F2401A80021CDE90147CDE9F4
:1027900003770597FEF728FB20B1EFF3108072B6A0
:1027A000FEE700BF00210691306805F5584240F071
:1027B0008000306030684FF6FF7300F080000690B4
:1027C00006980691306840F001003060306800F0F3
:1027D0000100069006980691306840F002003060D3
:1027E000306800F002000690069840F20010C2F235
:1027F0000000CDE90B11CDE90911C0E90024C0E9C1
:10280000021301618161FEF7F1FD28B1EFF3108041
:1028100072B600BFFEE700BF40F20010C2F2000037
:10282000FFF796F920B1EFF3108072B6FEE700BF14
:102830006020069040F200100026C2F2000006A9B7
:102840000022CDE907660A96FFF772F820B1EFF390
:10285000108072B6FEE700BF40F2001041F600049F
:10286000C2F20000C4F20004FEF7E6FF40F2481096
:10287000C2F200000F214FF6FF720496CDE9026606
:10288000CDE90B66CDE90966C0E90041C0E9026205
:1028900006618661FEF7AAFD20B1EFF3108072B6E3
:1028A000FEE700BF4FF48050019040F24810C2F2A2
:1028B000000001A9FEF736FE20B1EFF3108072B6DA
:1028C000FEE700BF40F24810C2F20000FFF740F9F7
:1028D00020B1EFF3108072B6FEE700BF60200690D3
:1028E00040F248100026C2F2000006A90022CDE9FD
:1028F00007660A96FFF71CF820B1EFF3108072B656
:10290000FEE700BF40F24810C2F20000FEF794FF5D
:1029100040F2901004F58061C2F200004FF6FF73A0
:10292000CDE90B66CDE909660F2280E84600C0E9D3
:1029300003368661FEF75AFD20B1EFF3108072B6C0
:10294000FEE700BF40F29010C2F20000FFF700F96E
:1029500020B1EFF3108072B6FEE700BF6020069052
:1029600040F290100026C2F2000006A90022CDE934
:1029700007660A96FEF7DCFF20B1EFF3108072B60F
:10298000FEE700BF40F29010C2F20000FEF754FFD5
:1029900040F2D81004F50061C2F200004FF6FF7358
:1029A000CDE90B66CDE909660F2280E84600C0E953
:1029B00003368661FEF71AFD20B1EFF3108072B680
:1029C000FEE700BF40F2D810C2F20000FFF7C0F8E7
:1029D00020B1EFF3108072B6FEE700BF60200690D2
:1029E00040F2D8100024C2F2000006A90022CDE96E
:1029F00007440A94FEF79CFF20B1EFF3108072B6F3
:102A0000FEE700BF40F2D810C2F20000FEF714FF4C
:102A100040F27006C2F2000605F52041304640F84B
:102A2000041F4FF4E1310C22C0E90114C0E9034452
:102A3000C0E90524C461FFF71FFC18B1EFF3108053
:102A400072B6FEE740F2B8000122002405F53041DD
:102A5000C2F200000125C0F600720994057680F8E4
:102A60002040C0E90A24C56180F83040C0E9001464
:102A7000C0E90244C0E90444FDF78EFD20B1EFF344
:102A8000108072B6FEE700BF40F2B800C2F200004C
:102A900006A9CDE906550894FDF7DCFC20B1EFF35B
:102AA000108072B6FEE700BF40F20014C2F20004CC
:102AB0002046FFF769FC40F2B805C2F2000540F27B
:102AC00051372846FDF7CCFE28460A21FDF748FE7F
:102AD0002846FDF75DFD30802846FDF76FFF308802
:102AE000B8429CBF40F25230308001092046FFF7C7
:102AF00045FC6420FDF7D6FFE3E7F1EE100A4FF640
:102B0000FF71C0F2C03120EA010040F04070E1EEF8
:102B1000100A7047000000000000000001020304DA
:102B2000060708090000000001020304020000007B
:102B3000040000000800000010000000FDFFFFFF7F
:102B4000FBFFFFFFF7FFFFFFEFFFFFFFFFFDFFFFB3
:102B5000FFFBFFFFFFF7FFFFFFEFFFFF802B0008EA
:102B60000000002010000000EC010008902B00087D
:102B700010000020180800000C02000800000000EF
:102B800001000000100000000024F400000000001C
:040000050800018965
:00000001FF
